:020000040000FA
:10000000181B0020AD010000D5010000091F0000F1
:1000100000000000000000000000000000000000E0
:10002000000000000000000000000000D9010000F6
:100030000000000000000000DB010000F52B0000C4
:10004000DF010000DF010000DF010000DF01000030
:10005000611C0000CD1C0000DF010000000000005A
:10006000DF010000DF010000DF010000DF01000010
:100070006D2C0000DF010000DF010000DF01000047
:10008000DF010000611E0000DF010000DF01000051
:10009000DF010000DF010000DF010000DF010000E0
:1000A00061180000DF010000DF010000DF01000037
:1000B000DF010000DF010000DF010000DF010000C0
:1000C00000F002F800F062F80CA030C808382418DC
:1000D0002D18671EA246AB4654465D46AC4201D180
:1000E00000F054F87E460F3EB6460FCC0126334250
:1000F00000D0FB1A3343A246AB46184750320000EB
:1001000070320000103A02D378C878C1FAD852078A
:1001100001D330C830C101D504680C6070470000BD
:100120000023002400250026103A01D378C1FBD813
:10013000520700D330C100D50B60704710B5662957
:1001400002D103F061F810BD642902D100F050F92A
:1001500010BD782902D100F081F910BD632902D1C8
:1001600000F081FE10BD732902D100F084FE10BDA5
:10017000002010BD1FB500F0ABFE040000200021E0
:1001800003F002F8E0601FBD10B510BD01F0A4FA45
:100190001146FFF7EFFF02F0BBFE01F0BCFA03B41B
:1001A000FFF7F2FF03BC01F053FB00000F481049BA
:1001B00001601049016010490160104A1049116046
:1001C000104A114911601148804708480021016018
:1001D0000F480047FEE7FEE7FEE7FEE7FEE7FEE723
:1001E0000C480D490D4A0E4B7047000000010050AD
:1001F0005900000016000000880000006000005058
:10020000A55A000014000050C00000001D2C000082
:10021000C100000018140020181B00201816002030
:1002200018160020FEB5044610460D46184373D03C
:10023000A6468C460020A41A01469D4167D3664617
:10024000002701243D46B61A9D4102D313463A4683
:100250002124654676462F04360C3E432D0CB61AF3
:100260009D4104D3150C1B042B4312041034654626
:1002700076462F06360A3E432D0AB61A9D4104D310
:10028000150E1B022B4312020834654676462F07D3
:1002900036093E432D09B61A9D4104D3150F1B01A3
:1002A0002B431201241D65467646AF07B6083E4330
:1002B000AD08B61A9D4104D3950F9B002B439200C5
:1002C000A41C65467646EF0776083E436D08B61ACD
:1002D0009D411AD392185B41641C16E000187646C3
:1002E00065464941B71A9D410191009009D3604686
:1002F000B11A98418E468446009801990025401C09
:100300006941DD0752082A435B08641EE6D5724640
:10031000634603B0F0BDFFE72046284307D0002026
:10032000C0430146C046C04622462B46F1E70020A6
:100330000146F7E70FB4054910B503AA029800F08B
:100340009FFD10BC08BC04B01847000080000020CE
:1003500070B5044685690068C10601D5302600E005
:100360002026C00707D070BD62683046A16890475C
:10037000206A401C20626D1EF6D570BD70B5044623
:1003800085690078C00707D170BD6268A168202028
:100390009047206A401C20626D1EF6D570BD70B576
:1003A0000C460546012A05D02878800600D5EA6962
:1003B000002302E0012305E05B1C934202D2E05CD3
:1003C0000028F9D1A869E618C01AA861286AC018DF
:1003D00028622846FFF7BCFF04E06A682078A96815
:1003E000641C9047B442F8D32846FFF7C7FF70BD9E
:1003F000F7B5002575291068009914A611D0C046DC
:10040000C046002802DA404211A608E000990968B7
:100410008A0701D50FA602E0490704D50EA60125DB
:1004200001E0C046C046009F0024243704E000F0ED
:100430003BFD30313955641C0028F8D12B4632463B
:100440002146009800F0A1FAFEBD00000000000067
:100450002D0000002B0000002000000070B50446B5
:100460000D4621461068C046C0462188090502D5C0
:100470000F4A7A4402E00E4A7A440E3223460021A3
:10048000243305E006070009360F965D5E54491CCB
:100490000028F7D120780023000705D5702D03D060
:1004A000002901D002231132204600F06EFA70BDFF
:1004B000A22D0000F3B50446002081B02062204642
:1004C000E168884700287DD0252802D06268A168AD
:1004D00083E0454F00257F442046E1688847202877
:1004E000064608DB312E06D2B819203800780028DD
:1004F00001D00543F0E7A80701D50420854300207B
:10050000E0610746A0612A2E0AD0304602F035FE8F
:10051000002827D0B8000019303E0090866119E00D
:100520000298BA00121902C8916102902046E1684F
:100530008847012F064617D1E06900281FDA2020DE
:1005400085431CE000980A2180694843009980197E
:10055000303888612046E1688847064602F00DFE83
:100560000028EFD1012F0AD02E2E08D12046E168B5
:1005700088470646202005437F1C022FC3DBA06965
:10058000002803DA4042A06101200543E80701D0BA
:1005900010208543002E24D030464138192803D836
:1005A0000120C00205432036204625603146029ACC
:1005B0001546FFF7C3FD00280CD0012807D0ED1D1C
:1005C000E80800E00DE0C0000830029077E72D1D3C
:1005D000029574E762683046A1689047206A401C23
:1005E0006CE7206AFEBD0000662D000010B50249D0
:1005F00002F088FC10BD00008000002010B5044609
:1006000003E002F07FFC401C08D020780549641C00
:100610000028F6D10A2002F075FC10BD0020C0436E
:1006200010BD000080000020002203098B422CD363
:10063000030A8B4211D300239C464EE003460B4332
:100640003CD4002243088B4231D303098B421CD394
:10065000030A8B4201D394463FE0C3098B4201D386
:10066000CB01C01A524183098B4201D38B01C01ABE
:10067000524143098B4201D34B01C01A5241030935
:100680008B4201D30B01C01A5241C3088B4201D3E4
:10069000CB00C01A524183088B4201D38B00C01A91
:1006A000524143088B4201D34B00C01A5241411AB8
:1006B00000D201465241104670475DE0CA0F00D09B
:1006C0004942031000D3404253409C460022030994
:1006D0008B422DD3030A8B4212D38901FC2212BA1A
:1006E000030A8B420CD3890192118B4208D38901F2
:1006F00092118B4204D389013AD0921100E089090A
:10070000C3098B4201D3CB01C01A524183098B42EA
:1007100001D38B01C01A524143098B4201D34B01D3
:10072000C01A524103098B4201D30B01C01A524136
:10073000C3088B4201D3CB00C01A524183088B42BD
:1007400001D38B00C01A5241D9D243088B4201D346
:100750004B00C01A5241411A00D201465241104684
:1007600063465B1001D34042002B00D549427047DD
:1007700063465B1000D3404201B50549002802DC06
:10078000491C084000E00846C046C04602BD00BF04
:10079000FFFFFF7F7047704770470000F0B5FF25EF
:1007A0002D04C609C209FF2704462E400137CB0994
:1007B0003E4348402A402B400746002A6BD0002B7E
:1007C00069D0AA4267D0AB4265D0002800DA324631
:1007D0000125ED0529432C4309022002090AD21AFA
:1007E0004B0C7F24E31A434C000A7C44E35C7D24D9
:1007F0002404121914145B00A218884201D3521C5D
:1008000000E0400049420C465C4324115C43DB019C
:100810006415E318040A5C43C502200D0C464443EA
:100820006419250A5D432303EC0C0D466543000360
:100830000019EB184C42A34201D35B18401CD405AD
:100840002018002B07D05B00C91804D3401C0029D6
:1008500001D1400840003F2189048A4209D3002A7F
:1008600008DC1106090F04D0032149074018C00F06
:10087000C007F0BD01224100120689187F225206EE
:100880009142F6D205214907C84201D59010F0BD2A
:10089000FF20C005F0BD002F00DA32461648AA42FC
:1008A00007D2AB4205D21902090E17D0F80FC007C4
:1008B000F0BDFF2563002D06AB42F9D84900A942DF
:1008C000F6D8AB4201D1A942F2D0A94201D1002110
:1008D00001E061004908D0050843F0BD1102090E8E
:1008E000FBD0FF200243D005F0BD0A46014610466A
:1008F00054E70000632A00000000C07F0102C21517
:1009000004D00123DB071943002A0ADB9E239A1A2D
:1009100002D40846D0407047FF224100120691429F
:1009200001D900207047C017C04370471F22030C35
:1009300002D10F2200041CD0030E01D10002083A9C
:10094000030F01D10001121F830F01D18000921EFD
:10095000002801DB4000521ED20551180212511826
:100960001922904004D3491C002801D149084900AC
:1009700008467047C10FC90700D0404201229207C4
:100980001143D3E701218907D0E7FFB504460D469F
:1009900081B0243000902168880604D51022E069D7
:1009A0009143216000E00120A84201DD471B00E0E7
:1009B00000270498A1697A191018081AA0612078F4
:1009C000C00602D42046FFF7C3FC002608E00398C7
:1009D0006268A168805D9047206A401C761C206296
:1009E00004988642F3DB2078C0060AD52046FFF73C
:1009F000AFFC06E06268A16830209047206A401C86
:100A0000206238467F1E0028F4DC07E00098626808
:100A1000A168405D9047206A401C206228466D1EF8
:100A20000028F3DC2046FFF7A9FC2078000602D559
:100A3000022005B0F0BD0120FBE70000FFB50C4629
:100A40001E468FB003CA089009914F007D0D00D15A
:100A50006D1E002108460020C0460321099A890521
:100A60000840002A03DA8200801840080840800D00
:100A700001280A9002DD0020C0430A90089807432D
:100A80000DD0F048F049281848430714189800285A
:100A90001DD07542291E1DDD0A9842421BE01898A0
:100AA000012802D00020302104E00020F24305E0BC
:100AB0002154401CB042FBDB30460022189B002131
:100AC00021540F998B600A60486013B0F0BDBD1BC4
:100AD0006D1CDFE70A9A002900DA69420BA800F0D2
:100AE00095FA0BAB07CB03AB07C30899099800F045
:100AF000F9FA6B4607C30146D4480918002D009146
:100B00000BDDD24903980A9A49424018002303A9F1
:100B10000390684600F056FD08E003990A9A002306
:100B2000081803A90390684600F0F6FC6B4607C35B
:100B30000004000C03D00020C043410800E0104630
:100B4000189A002A03D00022009215461EE0751E56
:100B500005D400F0C1F9303262556D1EF9D501227D
:100B60000843079602D000227F1C04E0207830283A
:100B700001D100227F1E002A069787D01EE0112D8A
:100B800007DA00F0A9F9303262556D1C02460A43BB
:100B9000F5D1084303D00098002819D00EE00021B9
:100BA000681E05E0235C625C63542254401E491CAD
:100BB0008142F7DBA81B401E07950690079A1899FB
:100BC0000020A0540F98079B069A81600CC07CE718
:100BD00011260020189059E7D21DF0B50D460446A5
:100BE000D10893B0C90003C90C900D9102F0A2FA8C
:100BF00002460D98C00F01D02D2007E02068810724
:100C000001D52B2002E04007C00F4001032A0F90BE
:100C100001D0072A05DB03462946204600F0B2F939
:100C20000EE12078800601D5E76900E00627284616
:100C3000652D04D0662814D0672D69D12DE00020E1
:100C4000112F009001DB112300E07B1C0CAA03A9EB
:100C500010A8FFF7F3FE1199002610987D1C0E9145
:100C600042E001203B460CAAC0070B9001200090F7
:100C700003A910A8FFF7E2FE119D12981099002613
:100C800000280E9501D1781C0D18781B02D446421D
:100C90007D1C761EE81B00903AE0012F00DA012748
:100CA0000020112F009001DD112300E03B460CAA2B
:100CB00003A910A8FFF7C2FE11993D46109800261F
:100CC0000E91217809070BD40E99A94200DA0D463E
:100CD00003A9012D04DD4A19203AD27F302A06D01B
:100CE000B84201DA011D04DA012100910FE06D1E06
:100CF000EFE7002802DC86192D1A03E0411CA94207
:100D000000DD0D46801B401C00900120C0070B90A9
:100D10002078000705D40098A84202DB0020C043D9
:100D2000009069460020C8720B98012102AF03377A
:100D3000C907884225D0022010902B2011900B98D3
:100D400000280BDA40420B902D20119006E00B9802
:100D500000F0AAF830317F1E0B9039701099481EB0
:100D600000291090F3DC0B980028F0D111987F1E19
:100D700038702088000501D5452000E065207F1EE1
:100D8000387001A8C01BC01D0B900F98002800D020
:100D9000012041190098C01709180B980818A1697B
:100DA000081A401EA0612078C00602D42046FFF732
:100DB000CFFA0F98002805D06268A1689047206A92
:100DC000401C20622078C00625D52046FFF7C0FAD7
:100DD00021E0002E07DB0E98B04204DD03A8626814
:100DE000805DA16802E06268A16830209047206AB7
:100DF000761C401C20620098401E002800900AD1FA
:100E000000F066F8C06862680168405CA1689047BD
:100E1000206A401C206228466D1E0028D9DC07E0AD
:100E200062683878A1687F1C9047206A401C206265
:100E30000B99481E00290B90F2DC2046FFF79EFA22
:100E4000032042E601FCFFFF104D0000E1DFFFFF41
:100E500010B54369002B02D0C046C04601E0FFF741
:100E60009EFA012010BD1278014624310A7000223A
:100E70004A700122ECE711680022D243E8E7000043
:100E8000084B70B50D467B4400F069F804462846CF
:100E900000F0E8FB002802D00020C04370BD2046CF
:100EA00070BD00007B20000001468008081A02097E
:100EB0001018020A1018020C1018C008820012182C
:100EC0005200891A01E0401C0A390A29FBD27047F6
:100ED00000487047280000200B4670B5024689077D
:100EE0008008084319469D08141AA94125090807D6
:100EF000054308092C194841250A01060D43010A3A
:100F00002C194141200C0D0428430D0C00194D41B2
:100F1000002140194D41C00869070843E908840FC2
:100F20008D002543840024184D4124196D41121B66
:100F3000AB4107E00925ED432C1152196341002410
:100F4000401C61411C460A250026551BB441F1D2C4
:100F500070BD000001694A1C02610878704700B545
:100F60008FB00291002105910549019379440391C5
:100F7000114604906846FFF79DFA0FB000BD0000CF
:100F8000E5FFFFFFF8B51F46044601230068DB02BA
:100F9000032601461840072A05DB002801D017A5C3
:100FA00006E017A504E0002801D016A500E016A56C
:100FB000102081432160A069C01E002FA06101D0D4
:100FC000401EA0612046FFF7C3F9002F09D0384624
:100FD0006268A1689047206A401C2062C01C2062A1
:100FE00006E0206AFAE762682878A1686D1C9047DD
:100FF000761EF8D22046FFF7C1F9F8BD4E414E00EB
:101000006E616E00494E4600696E6600F7B5164681
:101010008AB0334878446C4603467C33C06F5A68C4
:101020009B680DC42E487844763003AC0DC80DC4BF
:101030003720C001081837211B30FFF7FFFA05469B
:101040000C46803D1B3C02D56442012000E000209C
:101050000027099010E0E0070CD00C2020497843CD
:10106000794432464C3941186846012300F054FA5D
:101070006B4607C364107F1C002CECD1184F7F44D3
:101080002E3F16E0E80712D02001C0190EC80691C5
:10109000089307920068F04201D1981908903246EF
:1010A000012306A903A800F037FA03AB07C36D10AC
:1010B000641C002DE6D10998002806D03246694606
:1010C000012303A800F07EFA05E0012332466946B9
:1010D00003A800F021FA0A9B07C30DB0F0BD000081
:1010E0007C220000034640000A4610B5400D0BD09C
:1010F0000121C9070F24A40200191C03640821431D
:10110000540D2143D20207E000210120F2E7D40F61
:10111000490021435200401E0029F8DADB0FDB07AB
:10112000184310BDFFB50D46144685B04868516898
:1011300001F0E8FF00910190A868A16801F0E2FFCA
:1011400002910390A868616801F0DCFF029A12180E
:101150008242029201D2012000E00020019A0B1885
:10116000D2180028019202D08A4202D903E08A42B2
:1011700001D2012000E00020009908180090686862
:10118000A16801F0BFFF029A12188242029201D2B6
:10119000012000E00020019A0B18D21800280192CB
:1011A00002D08A4202D903E08A4201D2012000E043
:1011B0000020009908180090286821684000490024
:1011C000400849084018FA49471814E001994000BE
:1011D000C90F08430090019802994000C90F0843C5
:1011E0000190029803994000C90F084302900398A8
:1011F00040007F1E039000980028E7DA0898002836
:1012000001D0EC4E00E00026B74201DA012000E0F8
:101210000020002804902AD0F71BF806C00E15D035
:10122000029B2021091A039A8B401A430392029AC7
:10123000019BC2408B401A430292019A009BC2401C
:101240008B4000991A430192C14000917B110DD04F
:101250006F460320C11A03D500218200B95003E074
:101260008A008100BA587A50401EF3D53746039859
:101270000299002800D0012001430898029100281B
:1012800008460CD0002800D001200199019A490598
:1012900008430121D20AC902D202019200E00121D1
:1012A0000E9B0122D207012B02D0002B03D013E0AA
:1012B000002807D120E0904204D890420CD1019B35
:1012C0000B4209D0019B5918019105D10099491C85
:1012D000009101D17F1C009200280DD010210846FA
:1012E0000020C0460498002806D00F98002803D09C
:1012F000082108460020C04628682168019B009A02
:101300004840C10F0598C90739430EC009B0F0BD68
:10131000FFB587B0099A08980899536892684068A1
:10132000896896460022039317469446089A1268E5
:101330005300099A5B081268520052089A1A9E4B91
:10134000D4180A9A002A01D0352200E040220692E1
:101350000022012315460492DB07059324E0002DAB
:1013600005D175460346039E4D1BB34109D375460F
:101370006646039B491B049D9841059B7519AC4625
:101380005F4163463B4308D0059B049EDD0776081A
:101390002E435B080496059301E0521E641EC50FA0
:1013A000ED0749184041521C069B9A42D7DB002D9D
:1013B00004D17546039A6B1A824101D203200CE0D6
:1013C000039A0B466B404240134303D0014303D0C2
:1013D000012002E0022000E000206146019100218E
:1013E000009702910A99002905D061464002014305
:1013F000704B019102E08007002302909C4201DAC9
:10140000012000E0002007003AD01A1BD006C00ED1
:1014100015D0029D2021019C091AC5408C4025430E
:10142000029C8C4000D001242543019C0295009D24
:10143000C4408D4000992C430194C1400091541147
:101440001DD06D460221002202290CD10320001B71
:1014500007E0002804DB8600AE59002E00D00122F0
:10146000401C0328F5DB081B02D588002A5004E045
:101470008000285810438A00A850491EE3D51C4616
:101480000A98002802980CD0002800D00120019969
:10149000019A490508430121D20AC902D2020192E8
:1014A00000E00121109B0122D207012B02D0002B6A
:1014B00003D013E0002807D11FE0904204D89042E7
:1014C0000CD1019B0B4209D0019B5918019105D108
:1014D0000099491C009101D1641C009200280CD095
:1014E000102108460020C046002F06D01198002881
:1014F00003D0082108460020C04608980999019A9F
:10150000009B006809684840C10F0798C90721433C
:1015100082600AC00BB0F0BD00B585B001930092A7
:101520000A460146002302A8FFF7FCFD02A807C8EF
:1015300005B000BDFFB50A461F4685B00799019367
:1015400001230091014602A8FFF7ECFD02990398E0
:10155000049ECA0F4900D20700920F224908920246
:101560008C1A0021002800DB0C46450013486D084A
:10157000844214D3079A002A04DA441E0026104D30
:10158000F64302E004460D460E46102108460020B0
:10159000C046002F03D0042108460020C046200585
:1015A000E90A0843009908436905F20A1143ADE6C8
:1015B00002C0FFFF013C0000FF3F0000FF070000EA
:1015C000FFFFFF7F00B585B0019300920A460146F8
:1015D000002302A8FFF79CFE02A807C8A8E7FFB5F2
:1015E0000A461F4685B007990193012300910146E1
:1015F00002A8FFF78DFE02990398049ECA0F4900C6
:10160000D20700920F22490892028C1A002100286A
:1016100000DB0C46450011486D08844214D3079A3C
:10162000002A04DA441E00260D4DF64302E004466B
:101630000D460E46102108460020C046002F03D05C
:10164000042108460020C0462005E90A0843009905
:1016500008436905F20A114358E60000FF0700003D
:10166000FFFFFF7FC06880210840704710B5FF234F
:101670001B0644009C421DD84C009C421AD80346CD
:10168000124A0B4307D4401A02D3EFF3008010BD77
:10169000EFF3008010BD081A03D3EFF300809043EE
:1016A00005E0EFF3008001219043C907084380F370
:1016B000008810BD0D231B041A4204D011460020DF
:1016C00000F076F810BD00F08BF810BD000000901F
:1016D00000487047080000207546FFF7F9FFAE4646
:1016E000050069465346C008C000854618B020B5BD
:1016F000FEF776FD60BCB64600260027C0C5C0C513
:10170000C0C5C0C5C0C5C0C5C0C5C0C5403D4908ED
:1017100049008D46704710B50446C046C046204675
:10172000FEF73DFD10BD0000024670B50A4392076A
:101730002AD11E4DEE0104C808C9541B94433440FD
:1017400017D0D0B2D9B2401A2106014310D190B2BD
:1017500099B2401A210401430AD110021902000A69
:10176000090A401A2102014302D1100E190E401A33
:1017700070BD9A42DFD010BA19BA884201D901204F
:1017800070BD0020C04370BD02780B78401C491C1E
:10179000002A09D09A4207D102780B78401C491CD4
:1017A000002A01D09A42EFD0D01A70BD0101010188
:1017B000C80212D54803400F002804D0C803C04314
:1017C000012188407047EFF30080000100090321E8
:1017D0000907084380F30088704700207047000025
:1017E00010B5024800F004F810BD00000000C07FF2
:1017F00010B50C461107090F092904D00A290AD08F
:1018000008290CD104E011460820FFF7D1FF06E0BB
:10181000510606D501E0510601D50120C007214639
:1018200010BDD10607D501010909CC084907000EF2
:101830000006044309E0410F20024907000A014362
:10184000200E00061D22D14101430846E7E70000B3
:1018500001491820ABBEFEE72600020070470000D9
:10186000B0B50C4C2568680704D50BA0FEF7C6FE82
:1018700004202060A80704D50AA0FEF7BFFE0220BE
:101880002060E80704D00AA0FEF7B8FE012020601F
:10189000B0BDC04640020050485854204572726F97
:1018A000722121004C58542053746F702121000084
:1018B0004858542053746F70212100001F210140AB
:1018C00001228A40C00F800002494358134343500D
:1018D0007047C046040200501A490A6802430A6071
:1018E0007047C04680B501F087F90148006880BDA7
:1018F0000000002080B51348416ACA030FD40322B8
:1019000052040A400DD001235B049A420BD10269B4
:1019100012070AD40068800409D50E4A08E00020A6
:1019200080BD094A04E00C4A02E0084A00E0084A87
:101930003F20084050438904890E491CFEF774FE7D
:1019400080BDC0460002005000366E0100512502E5
:10195000001BB7000024F40000093D0010B50F2261
:10196000D243164BDC6814400C43DC60196811400C
:101970000143196001F040F910BDC04670B5830AFB
:10198000DCB20E4B002C0AD08505ED0EAC40050CE8
:101990000C262E409D19EE68A6431643EE60C20049
:1019A000120F0AD0C401E40EA240C00E0C24044061
:1019B0001C43206890430843206070BD1002005013
:1019C00007490A6807239A4302430A607047C046E2
:1019D00003490A6870239A4302430A607047C0466D
:1019E000340200500649096841430648416000211D
:1019F0008160052202600268D203FCD50160704755
:101A00000400002010E000E00549064A1368034086
:101A1000834203D0491CF9D300207047012070474E
:101A20007F0ADFFF0C020050FEB501920C4605460E
:101A3000C76A002201263346B84707460198074087
:101A400002AA1770286B0190284621463346019C54
:101A5000A0473846FEBD0068C1680D229143C160B1
:101A600070470068C16801220A430C218A43C260A2
:101A7000704780B501F014FB80BD0000F8B5009000
:101A8000602001F0A1FA044669460C2201F0FEFA3A
:101A90001149124A124B134D134E144F144820642F
:101AA0006764A664E56423656265A1650948E0652D
:101AB0001149124A124B134D134E144F1448206211
:101AC0006762A662E56223636263A1630948E0631B
:101AD0002046F8BD731A00004D1C0000431C000096
:101AE000391C0000571C00008D2D0000511F000004
:101AF00061200000EB1F0000291A0000052B0000E8
:101B00000D2E000001290000ED1B00002D2100001A
:101B1000151B000001487047004870470001000194
:101B200080B501F0BDFA80BDFEB500AB07C34C2007
:101B300001F04AFA044669460C2201F0A7FA0B4864
:101B4000A0640B48E0620C490C4A0D4B0D4D0E4E43
:101B50000E4F0F48E06027616661A561E361226274
:101B600061620448A0622046FEBDC046211B000001
:101B70009D280000612C000095280000072E000021
:101B8000571A0000631A0000951B00009520000002
:101B9000191B0000B0B5054600680F4C0F4988427C
:101BA00003D1204600F08CFF28680D49884203D1FC
:101BB000601C00F085FF28680A49884203D1A01CF8
:101BC00000F07EFF28680849884200D0B0BDE01CC4
:101BD00000F076FFB0BDC0460C00000400000340DA
:101BE0000000134000000D4000001E407047000040
:101BF000F8B50446012005060E4EFFF773FE314688
:101C0000FEF712FD01462846FEF70EFD84422746E8
:101C100009D9FFF767FE3146FEF706FD0146284663
:101C2000FEF702FD0746384600F000FCE41BE4D155
:101C3000F8BDC04640420F00017902220A430271FA
:101C40007047017904220A43027170470179082222
:101C50000A4302717047017901220A4302717047F9
:101C600070B5134E7068C56A3A21002201242346DC
:101C7000A8470546400602D57068C16C8847E8064B
:101C800002D57068016D8847280706D57068416DD8
:101C9000884708A02946FEF74DFBE80702D0706888
:101CA000816D884707480470E0030749086070BDEC
:101CB000680000204673796E63203A203078253022
:101CC00032580A001014002060400050F8B52B4C28
:101CD000206800062A4D09D56868002801D02CA08C
:101CE00000E028A0FEF78AFC802020600120C703C6
:101CF0002168394086032068304040183DD0286A6A
:101D0000012802D1686A002827D0286A002804D157
:101D1000686A012801D133A020E0286A01282AD16D
:101D2000686A012827D11D48FFF762FF286A012849
:101D300000D1686A1AA0FEF761FC1EA00121FEF71F
:101D4000F9FA0A25224C002D0BD02046FFF750FF50
:101D50002E20FEF74BFC6D1EF5E728A0FEF74EFC8B
:101D600009E01CA0FEF74AFC1D48FFF73BFE0020DF
:101D700003490860014C27602660F8BDE040005030
:101D8000D8420050427574746F6E20646F776E0095
:101D9000427574746F6E20757000000020A10700FA
:101DA000506F77657220697320756E706C75676708
:101DB00065642E00506F776572206F6666206166DD
:101DC000746572202564207365636F6E6473000010
:101DD000A08601000A506F77657220646F776E00ED
:101DE00010270000426174746572792066756C6C0E
:101DF0007920636861726765642E0000546865200D
:101E000062617474657279206973206368617267B6
:101E1000696E672E0000000010B5130E8B408469B8
:101E20001C438461FF231B069A438A40C169114306
:101E3000C16110BDF0B500231C46202B0ED00D460D
:101E4000E540ED0707D015469D4003269E400768F4
:101E5000B7432F4307609B1C641CEEE7F0BD0000F6
:101E6000F8B5114C27682669304638432569284360
:101E7000400705D50DA0FEF7C1FB2760266125624E
:101E8000B80703D50EA0FEF7B9FB2760B00703D54E
:101E900011A0FEF7B3FB2661A80703D514A0FEF737
:101EA000ADFB2562F8BDC046880000504C58542058
:101EB000436C6F636B206572726F722E00000000BE
:101EC0004849524330203A205472696D2046616976
:101ED0006C7572652E0000004849524331203A204B
:101EE0005472696D204661696C7572652E00000040
:101EF0004D495243203A205472696D204661696C05
:101F00007572652E000000000648042071460842E4
:101F100003D0EFF30980714606E0EFF3088003E099
:101F2000FEE7C046291F0000044603A0FEF766FB3B
:101F3000204600F0FBFFFEE7496E204861726420F6
:101F40004661756C742048616E646C6572000000B7
:101F5000F0B585B00546076B0A98029004291FD199
:101F600004ACC020E0700020A070637080200243A9
:101F700022703121042328462246B8472879F721C8
:101F80000140297128790007FCD5029E002E2AD035
:101F9000EC6A3521002201232846A047307022E058
:101FA0000E460B9903AC6370802001910143A17030
:101FB000024322700323184670432530C1B22846DD
:101FC0002246B8472879F72101402971287900076E
:101FD000FCD5A819019B4371029A002A03D02C6CEE
:101FE00028463146A04705B0F0BDF0B585B01E4685
:101FF00013460446056B0A98042911D104AAC0218E
:10200000D170907056701370312104232046A84778
:102010002079F7210140217120790007FCD51DE0CE
:102020000F4603AA107008466330C1B20193012322
:102030002046A84702AA812090705670019810701F
:1020400003235F432537F9B2256B2046A847207943
:10205000F7210140217120790007FCD505B0F0BDC2
:1020600070B51C4643185B79A34200D32346002574
:102070002C46A94205D046197679A419E4B26D1C04
:10208000F7E7182B00D31823C56A4934E1B2A847F3
:1020900070BD0000F8B5044685886807860F0227E2
:1020A0002068E049884203D11948FFF707FC2068FF
:1020B0007E401849884203D11748FFF7FFFB20688C
:1020C000B6000FA2EF071549884205D114481546FE
:1020D000FFF7F4FB2A46206895597E0B1149884288
:1020E00003D11148FFF7EAFB2068A188A26800929B
:1020F000C908CBB231462A4600F028FCF8BDC046DC
:1021000002080000040800000400000002000000B3
:102110000C008CA7000013400D008CC700000D4080
:102120000E00ACA700001E400F00ACC770470000B7
:10213000B0B50220FFF7D0FB0220FFF765FC0028B6
:10214000FAD00120FFF7C8FB01242046FFF75CFC12
:102150000028F9D06006FFF7BFFB4020FFF754FCD2
:102160000028FAD00420FFF7B7FB1020FFF74CFC43
:102170000028FAD02006FFF7AFFB2020FFF744FC31
:102180000028FAD00820FFF7A7FB08242046FFF715
:102190003BFC0028F9D01E4D2868F0210843286038
:1021A000286908432861286A08432862012006211B
:1021B00000F056FCA868C007FCD00220062100F001
:1021C0005FFCA869C007FCD00220062100F068FC73
:1021D000A86AC007FCD00F4D2868204328600C2057
:1021E00000242146FFF7BAFB2046FFF7E9FB204613
:1021F000FFF7EEFBA9204000011D6963A863A86AF0
:1022000007210843A862E86A0843E862B0BDC046F7
:102210008000005010020050FEB5012420043F4D04
:102220002968014329606004296801432960A004EA
:10223000296801432960E1042A680A432A602205CB
:102240002B6813432B6062052B6813432B60A20598
:102250002B6813432B60E305314D2E681E432E601F
:10226000304E376807433760306808433060306865
:10227000104330603068184330603720F063286DB9
:102280008021009108432865E1030291286D0843ED
:102290002865A103286D08432865204F3C37002698
:1022A00038460D46019132461F4B984738460299F1
:1022B00032461D4FB8473B46194F3C3738462946F2
:1022C00032461D469847384602993246A847384656
:1022D00000993246A8471148001F21022246A8470C
:1022E0004021384622462F46A8470D4D28467C30CF
:1022F00020212246B847286E029A10432866286E8D
:10230000019B184328660549086E10430866074874
:10231000066007480660C663FEBDC0460440005024
:102320008440005044410050351E000020420050BF
:10233000D8420050B0B5104D2868012806D0592069
:1023400028601620286088202860F5E700F01EF835
:10235000FFF7EEFE094800F073F80024204600F075
:1023600045F8FFF759FF00F09BF800F04FF800F038
:1023700007F82C60B0BDC046000100500000A0402E
:10238000014810210160704700E100E01148016838
:10239000114A0A4302604168104A0A434260816858
:1023A0000F4A0A43826001210903C2680A43C260DE
:1023B00001690C4A0A430261416941618169816195
:1023C000C169C161016A0162816A074A0A43826286
:1023D0007047C04630000050111111010000116615
:1023E00033334444111100207777007710B5044649
:1023F0000448FFF763FA204600F0BAF9024800F0FB
:102400009DF910BD01000CE02CA2871380B5054892
:102410004621054AFFF788FB3F4908600169884764
:1024200080BDC0460000034040420F0070B51B4C09
:1024300065682668FFF7D6FA6560266070BDC046FD
:10244000F8B50446FFF74EFA0546FEF79BFA21461B
:10245000FEF7A4F90646104900F082FE0F4F3968D6
:1024600000280AD1042081433960E808FEF78AFA7F
:102470002146FEF793F9064602E004200143396045
:102480003046FEF73BFA78600020B86038680321D8
:1024900001433960F8BDC046FFFF7F4B10E000E00C
:1024A00010B50C4C032100222046FFF767FA2046A6
:1024B000FFF704FA084800F003FB08480168C90365
:1024C000FCD4E1200102064800F03AFC05A0FEF72A
:1024D00095F810BD103D00AE100000040C00005037
:1024E0000000054044656275672073657269616C20
:1024F00020706F727420686173206265656E206F52
:1025000070656E656421210010B5034C2068FFF7EB
:10251000B5FA606010BDC046680000208EB0604D06
:102520002868436B6B278022394698475D48FFF740
:102530005FFB2C462868C56A75210022012603929C
:102540003346A847712801D059A100E056A15AA0EE
:10255000FDF7F0FE2068436B3946324698470DAAD6
:102560000A20089010702068056B19213346A8478F
:102570000CAA3746022616702068056B1A210791AF
:102580003B46A8472068836B1B25FC2229469847B9
:102590002068436B10222946069298472068436BB7
:1025A0001D252946324698472068836BF722294625
:1025B00098472068436B1C210826059132469847AE
:1025C0002068436B3421402298470BAAC02010702A
:1025D0002068056B37213B46A8472068436B3825A8
:1025E00029463A4698472068436B29463246984721
:1025F00038480F213A46FFF70FFC0AAA4D20107009
:102600002068056B24213B46A84709AA20201070AA
:102610002068056B6A213B46A8472068C56B1621D8
:10262000049100910C27039E31463A46089BA84727
:102630002068416C029107210096019103233146E5
:102640003D463A46029EB04723A06021FDF772FE48
:102650002A4E144F2068816C884720680E21435E03
:10266000425F0899415E1FA0B04720680699415E0D
:102670001222825E1423C35E21A0B0472068049911
:10268000415E1822825E079BC35E23A0B04720688C
:102690000599415E26A0B0473846FFF7A9FAD9E769
:1026A0006C000020A08601007472756500000000B7
:1026B00066616C7365000000436865636B204D5074
:1026C000553932353020636F6E6E656374203A2061
:1026D00025730A004040005073697A65203A20252E
:1026E000640A0000416363656C20583A25642059F0
:1026F0003A2564205A3A2564202000003503000062
:102700004779726F20583A256420593A2564205A37
:102710003A256420200000004D616720583A256466
:1027200020593A2564205A3A2564202000000000F0
:1027300054656D702025640A00000000B0B50246A3
:10274000C317002507492846FDF76CFD04460648D7
:10275000221AA94100D3044600F08EF80348046011
:10276000B0BDC04600710200FFFF3F00088000407E
:10277000F8B504463B4F3C4838603968012903D01E
:10278000386038680128FCD1002C69D0E56900F078
:1027900073F878690121002D02D00843786107E0C1
:1027A00088437861206A022802D1206914302061B0
:1027B00020682E4946180A2530462946FDF734FF81
:1027C00029464143711A09042246009404050C432A
:1027D000566830462946FDF727FF01032143684329
:1027E000301A04020C430098866830462946FDF7EB
:1027F0001BFF29464143711A2143000108431C4C29
:1028000020601C48804720683861009E346920465B
:102810002946FDF709FF01056843201A04040C430B
:10282000766930462946FDF7FFFE010321436843E0
:10283000301A04020C430098866930462946FDF799
:10284000F3FE4543711B214300010843084D2860F6
:10285000084CA0472868F860A0470098C068B86195
:10286000F8BDC046008000405713EBA530F8FFFFCD
:1028700084000020792800000448054901600268AE
:10288000D203FBD50168C901FCD470470480004025
:1028900065A900000068006908607047F0B585B060
:1028A0001C4606460020C543049101926C4327460E
:1028B0007F1C012F22D0B088C007F9D1039202916A
:1028C000002906D0049C2178326A30469047641C67
:1028D00004942C467C43B16A3046884730680168CE
:1028E000C907FCD1039A002A0299DFD00069019B35
:1028F00018706F435B1C01933C46D7E705B0F0BDF1
:10290000FEB50093154604468020084302AF387098
:102910002068816988472068C66A002201233946F9
:10292000B0472068C76A0021002D06D02A46009BC8
:10293000B847287801A9087002E001AA0123B84726
:102940002068C169884701A80078FEBD80B5202BAA
:1029500001D0DB0000E000230A431A430260029921
:1029600000F002F880BD000070B50D4604463948FD
:10297000844213D03848844220D0384884422BD136
:1029800003200106964843690B4001221606B34214
:102990002BD043690B4235D043690CE0032001067C
:1029A0008F4883690B4001221606B3421DD083690C
:1029B0000B4227D083690B4051061FE0032081069C
:1029C000874843690B4001229606B3420DD0436904
:1029D0000B4217D043690FE00320810680488369CA
:1029E0000B4001229606B34202D1FEF77BFF0BE0BB
:1029F00083690B4206D083690B40D1068B421DD1FF
:102A0000784E02E0FEF776FF0646AE42314600D32E
:102A10002946002910D03046FDF706FEA168FF22A6
:102A20009143401EFF2800D310460143A160411C82
:102A30003046FDF7F9FD70BD002070BD0169090742
:102A400004D40068400703D5694EDEE7664EDCE734
:102A5000664EDAE70000134000000D40000003401E
:102A600010B5064A53680624A3430B43536011680C
:102A7000072399430143116010BDC04680000050F8
:102A800010B5064A53680624A3430B4353601168EC
:102A9000032399430143116010BDC04690000050CC
:102AA00010B5064A53680624A3430B4353601168CC
:102AB000032399430143116010BDC046A00000509C
:102AC00010B5010E064A8B58FF242406A0430124AA
:102AD000844023438B508858A043885010BDC04683
:102AE0000800005001218A0272498B691342FCD10F
:102AF00008600A2804D188691042FCD10D200860C2
:102B00007047C046FEB501920C460546C76A0022D2
:102B100001263346B84707460198074302AA1770B3
:102B2000286B0190284621463346019CA047384631
:102B3000FEBD000010B5E84C2069072101400429C2
:102B40000AD8E6487944097949008F441702070AF0
:102B50000C000120C00311E0E9480FE000F018F874
:102B60000CE00A480AE02069000704D420688004C9
:102B700003D5E24802E0DC4800E0DE48E1690F22CC
:102B80000A40511CFDF750FD10BDC0461027000043
:102B900080B5D148416ACA030FD4032252040A40C7
:102BA0000DD001235B049A420BD1026912070AD4AB
:102BB0000068800409D5D14A08E0002080BDC74ADA
:102BC00004E0CF4A02E0C84A00E0CA4A3F20084079
:102BD00050438904890E491CFDF726FD80BDC0467F
:102BE0000002005000366E0100512502001BB700A4
:102BF0000024F4007047000010B5FFF79BFF044C61
:102C00002060044940180449FDF70EFD606010BDC6
:102C10000000002020A1070040420F000948026880
:102C200002210A430260084A084B1360084A1268EE
:102C3000084B1340084A9A18084B1A6002688A43E6
:102C400002607047080200500480004065A900003F
:102C500020010050FFCF00FF0030B000F0810040A5
:102C60000068016801220A430260704710B5114CE8
:102C7000206900061DD56069410713D4800714D56B
:102C80001348FDF7BBFC13A0FDF7B8FC204600F08D
:102C9000D7F8616A491CFDF7C7FC014614A0FDF78F
:102CA00049FB02E004A0FDF7A9FC8021204600F0CA
:102CB00027F810BD00000540436174636820627509
:102CC00061642072617465206572726F72212100E7
:102CD000283300004361746368205541525430200A
:102CE00062617564207261746520646F6E652E0088
:102CF000427561642072617465203A2025640A007F
:102D00004A0703D570228261012242610A0704D575
:102D100001229204C3691343C361012212028B068C
:102D200001D5531C83614B0601D5402303610B067B
:102D300001D506234361114201D03821416170471A
:102D400070B50D46044600F07BF8064660680C211D
:102D5000884360600020A0630320A060002D12D093
:102D6000680830182946FDF75FFC401E010C09D0A9
:102D7000E80030182946FDF757FC0009411E0248BB
:102D8000401C0843606270BDFFFFFF7F70B586B0D6
:102D90000446C66A3B2101AD14232A46B047687831
:102DA0000199090208186081E878A97809020818D1
:102DB000A0816879029909020818E081E879A97967
:102DC00009020818A083687A03990902081820826A
:102DD000E87AA97A090208186082687B04990902D6
:102DE0000818A082A87BE97B09020818E082287CE9
:102DF000697C090208182083A87CE97C090208186C
:102E0000608306B070BD006801627047FEB5019333
:102E10000092044602AF39700068816988472068D3
:102E2000C66A0025012339462A46B0472068C66A8B
:102E300000992A46019BB0472068C1698847FEBDBA
:102E400010B50146244A2548254B994206D0254B0A
:102E500099421AD1134618330C2102E01346143359
:102E600008211C6807232340D469CC400F2121404E
:102E70004C1C032B0BD8C0467B441B795B009F4442
:102E80001E01080B0120C00319E0012417E01C48B3
:102E900015E0FFF77DFE12E0106900070CD413491E
:102EA0000868C0070AD108688007124807D40B6871
:102EB0009B0708D0104802E00B4800E00C48214670
:102EC000FDF7B2FB10BD096849070C4902D412682E
:102ED0009204F4D50846F2E70002005000366E0175
:102EE0000000054000001540005125028000005000
:102EF00000C0A800001BB7000080BB000024F40045
:102F000000093D0010B50446FFF7ECFD204610BD5A
:102F1000FFF710FAFFF7F8FA02A0FDF76FFBFFF7D3
:102F2000FDFAC0465354415254212100B0B5044625
:102F300001680CA00E4DA84761680EA0A847A168C3
:102F40000FA0A847E16811A0A847216912A0A847CF
:102F5000616914A0A847A16915A0A847E16917A055
:102F6000A847B0BD723020203D20307825780A0077
:102F700035030000723120203D20307825780A008A
:102F8000723220203D20307825780A0072332020CC
:102F90003D20307825780A00723132203D2030788B
:102FA00025780A006C7220203D20307825780A00B0
:102FB000706320203D20307825780A0070737220DD
:102FC0003D20307825780A00F8B54D4F3B68002B3E
:102FD0001DD107212B4B1E460E40DD1D8D43002EBB
:102FE0002C4600D11C46BC602749002E01D05A1B3C
:102FF00051180A19083A3A6000231360FB6079609F
:1030000039684B60BA688B1A083B0AC23B684107B3
:1030100002D0C01D072188430446083439460831D0
:1030200000250F460095096899420DD04A688242F2
:103030001CD0A24206D3002D02D06E68B24201D24B
:103040000D4600970F46EEE7002D17D02A68294657
:1030500008310A502A4B5A68121B5A600A186B68CA
:103060001B1B5360009B1A60686008E008683860AA
:10307000234A5068001B5060083100E000210846D8
:10308000F8BDC0468800002088130000002A05D043
:103090000B780370401C491C521EF7E77047000074
:1030A000F0B500282AD001460839154C22460832CE
:1030B00013461B68002B21D0994201D31A46F8E72A
:1030C00067684D682E460836F719676028189842D9
:1030D00008D12068834205D0186808605868351800
:1030E0004D6000E00B605068083083188B4204D1BB
:1030F0004019506008681060F0BD1160F0BDC04616
:1031000070000020F8B5040C8BB2264682B25E43F4
:10311000104658430D0C370C360400218019164612
:1031200079416E43370C36048019264679416E4347
:103130008919F8BD4900CA020243100000D00420DA
:103140004A0D01D001221043044A490D914201D198
:1031500002210843012800D105207047FF07000025
:1031600010B500F027F8EFF300804000800F012831
:1031700001D0012010BD002010BD30380A2801D236
:10318000012070470020704710B500290AD0087848
:10319000002807D005487844FEF7C6FA002801D079
:1031A000002010BD0248784410BD0000D601000088
:1031B000CE0100000123DB0502000A430DD4DA42F0
:1031C00003D49A4207D488427047D84214D4D942D3
:1031D00012D48842704780427047DA4203D59A423F
:1031E000F9D5814270475B004200DA4204D24A00BE
:1031F000DA4201D28142704710B5024AFEF736FA30
:1032000010BD00BF0900160403B402487844844688
:1032100003BC6047C9D9FFFF30313233343536370C
:10322000383941424344454640305800303132330A
:10323000343536373839616263646566403078000A
:10324000040000080000000000000002000100006F
:10325000108182838485868788898B8C8D8E8F915F
:103260009293959697999A9C9D9FA0A2A3A5A7A893
:10327000AAACAEB0B2B3B5B7B9BCBEC0C2C5C7C9BF
:10328000CCCED1D4D7D9DCDFE2E6E9ECF0F3F7FA23
:10329000FE00000002400000000000A0000000004E
:1032A00005400000000000C8000000000C400000C5
:1032B0000000409C00000000194000000020BCBE3F
:1032C0000000000034400000BFC91B8E0000000455
:1032D000B5400000504BCFD06607E2CF01000000A0
:1032E0006C4100003E8251AADFEEA73401000000CD
:1032F000D9420000DCB5A0E23A301F97FFFFFFFF84
:10330000B4450000FD25A0C8E9A3C14FFFFFFFFFA2
:10331000FF3F00000000008000000000FF3F0000B1
:1033200000000080000000002D2D2D2D2D2D2D2DB5
:103330002D2D2D2D2D2D2D2D2D2D2D2D2D2D2D2DBD
:103340002D2D2D2D2D2D2D2D00000000883300005A
:10335000000000200800000004010000903300007D
:1033600008000020101B0000200100001C000000CD
:1033700043000000F8FFFFFF0C0000000E000000FB
:103380000F0000002E000000001BB7000C00000022
:04000005000000C136
:00000001FF
