:020000040000FA
:100000006806002091010000B901000075010000A0
:1000100000000000000000000000000000000000E0
:10002000000000000000000000000000BD01000012
:100030000000000000000000BF010000C10100003E
:10004000C3010000C3010000C3010000C3010000A0
:10005000C3010000C3010000C30100000000000054
:10006000C3010000C3010000C3010000C301000080
:10007000C3010000C3010000C3010000C301000070
:10008000C3010000C3010000C3010000C301000060
:10009000C3010000C3010000C3010000C301000050
:1000A000C3010000C3010000C3010000C301000040
:1000B000C3010000C3010000C3010000C301000030
:1000C00000F002F800F046F80CA030C808382418F8
:1000D0002D18A246671EAB4654465D46AC4201D180
:1000E00000F038F87E460F3E0FCCB646012633426C
:1000F00000D0FB1AA246AB4633431847BC050000AC
:10010000DC050000103A02D378C878C1FAD852074B
:1001100001D330C830C101D504680C6070470000BD
:100120000023002400250026103A01D378C1FBD813
:10013000520700D330C100D50B60704710B5782945
:1001400002D100F06FF810BD002010BD1FB51FBD1B
:1001500010B510BD00F0A0F91146FFF7F7FF00F051
:1001600040FA00F0B8F903B4FFF7F2FF03BC00F067
:10017000BFF9000004207146084202D0EFF3098065
:1001800001E0EFF308807146004A104701050000C6
:100190000F48104901601049016010490160104A80
:1001A00010491160104A11491160114880470848F0
:1001B000002101600F480047FEE7FEE7FEE7FEE78B
:1001C000FEE7FEE70C480D490D4A0E4B7047000054
:1001D00000010050590000001600000088000000D7
:1001E00060000050A55A000014000050C00000003C
:1001F0006D050000C10000006800002068060020B6
:1002000068020020680200200FB4054910B503AA57
:10021000029800F015F910BC08BC04B018470000A3
:100220000000002070B504460D4621461068C04607
:10023000C0462188090502D50F4A7A4402E00E4AD9
:100240007A440E3223460021243305E006070009D4
:10025000360F965D5E54491C0028F7D120780023A4
:10026000000705D5702D03D0002901D002231132DB
:10027000204600F08DF870BD52040000F3B504462E
:10028000002081B020622046E168884700287AD0AB
:10029000252802D06268A16871E0E1682046002547
:1002A000884706460020E0610746A0612A2E0AD052
:1002B000304600F083F9002827D0B8000019303EFE
:1002C0000090866119E00298BA00121902C8916183
:1002D00002902046E1688847012F064617D1E06961
:1002E00000281FDA202085431CE000980A2180693D
:1002F000484300998019303888612046E168884772
:10030000064600F05BF90028EFD1012F0AD02E2E0F
:1003100008D12046E16888470646202005437F1C17
:10032000022FC3DBA069002803DA4042A06101204C
:100330000543E80701D010208543002E23D0304626
:100340004138192803D80120C00205432036204631
:1003500025603146029A1546FFF7F0FE00280BD0C3
:10036000012806D0ED1DE808C000083002908AE799
:1003700009E02D1D029586E762683046A168904726
:10038000206A401C7EE7206AFEBD704770477047B8
:10039000FFB504460D4681B02430009021688806E0
:1003A00004D51022E0699143216000E00120A842B9
:1003B00001DD471B00E000270498A1697A19101895
:1003C000081AA0612078C00602D42046C046C04664
:1003D000002608E003986268A168805D9047206A63
:1003E000401C761C206204988642F3DB2078C0060D
:1003F0000AD52046C046C04606E06268A1683020A3
:100400009047206A401C206238467F1E0028F4DC9A
:1004100007E000986268A168405D9047206A401C30
:10042000206228466D1E0028F3DC2046C046C046E8
:100430002078000602D5022005B0F0BD0120FBE7C0
:10044000084B70B50D467B4400F013F8044628466F
:1004500000F0BBF8002802D00020C04370BD204649
:1004600070BD00008901000001694A1C0261087822
:10047000704700B58FB002910021059105490193A5
:1004800079440391114604906846FFF7F7FE0FB0D8
:1004900000BD0000E5FFFFFF754600F025F8AE4601
:1004A000050069465346C008C000854618B020B50F
:1004B000FFF788FE60BC00274908B6460026C0C585
:1004C000C0C5C0C5C0C5C0C5C0C5C0C5C0C5403D0C
:1004D00049008D46704710B50446C046C0462046C8
:1004E000FFF741FE10BD00000048704708000020E3
:1004F00001491820ABBEFEE726000200704700004D
:10050000044604A0FFF780FE204600F06DF800BF0F
:10051000FEE70000496E2048617264204661756CF8
:10052000742048616E646C65720A000000B5034671
:10053000184600F001F800BD00BF0B49896901228F
:10054000920211400029F8D1074908600A280AD10F
:1005500000BF054989690122920211400029F8D1A2
:100560000D21014A11607047000005400E48806867
:10057000022108430C4988600C480D4948600D4829
:10058000006A032109030843FF21090488430B2162
:100590000905401808490863034880680221884318
:1005A00001498860704700000002005065A9000002
:1005B0000080004000010050C081004030380A280F
:1005C00001D2012070470020704701460020C0433F
:1005D000704730B504460D462046FFF7A7FF20467A
:1005E00030BD00BFFEE7000010B5044610A0216832
:1005F000FFF70AFE11A06168FFF706FE12A0A168CE
:10060000FFF702FE13A0E168FFF7FEFD14A02169C9
:10061000FFF7FAFD15A06169FFF7F6FD16A0A169C5
:10062000FFF7F2FD17A0E169FFF7EEFD10BD000036
:10063000723020203D20307825780A007231202049
:100640003D20307825780A00723220203D20307815
:1006500025780A00723320203D20307825780A0062
:10066000723132203D20307825780A006C722020CB
:100670003D20307825780A00706320203D203078B6
:1006800025780A00707372203D20307825780A00A2
:1006900030313233343536373839414243444546B8
:1006A00040305800303132333435363738396162B2
:1006B0006364656640307800D806000000000020C2
:1006C0000800000004010000E0060000080000200F
:1006D0006006000020010000000000000000000093
:04000005000000C136
:00000001FF
